:02000000562880
:10000800F000030E83120313A0000A08A1008A015E
:100018000408A2008C1E1B28B80A3808503A031995
:10002800B801A030380784008313140880000B1D22
:100038002A28AA0A2A081E3A031D2528AA010515F6
:1000480029282A082B06031905110B1122088400F8
:1000580021088A00200E8300F00E700E0900A5000A
:100068001B302502031800348A0125088207203432
:10007800203453347034613472346B3446347534FC
:100088006E342E3463346F346D34003420342034AD
:100098005334653472344C34433444342034763425
:1000A8003234003483160313582183123808390672
:1000B80003195A28B90A3908503A0319B901A03066
:1000C8003907840083130008A700FE3A031D8C2813
:1000D8003808390603196C28B90A3908503A03193F
:1000E800B901A0303907840083130008A700270E40
:1000F8000F39033A0319822827083422270B862848
:10010800A8015A28A71F5A287F302705A8005A286F
:1001180027087C3A031DA1283808390603199028B6
:10012800B90A3908503A0319B901A03039078400CF
:1001380083130008A700D5205A2827082622A80AD2
:1001480028083006031DB3282F0BAE28A801340851
:1001580034225A284030A800350834225A28280862
:100168003106031DC4282F08023A031DBF28A80121
:10017800340834225A282E08A800360834225A286F
:1001880028083206031DCD283108A8003708342274
:100198005A2828083306031D5A28A801340834228F
:1001A8005A28270BE2280130AC002C08031D05153E
:1001B80003190511A30000306F2240292708023ACD
:1001C800031DF028AC012C08031D051503190511A2
:1001D800A30000306F2240292708033A031DFA289C
:1001E8001430AE00A30001306F2240292708043ADA
:1001F800031D04291030AE00A30001306F224029EE
:100208002708053A031D0E290430AF00A300023069
:100218006F2240292708063A031D17290230AF002C
:10022800A3006F2240292708073A031D212901301E
:10023800AF00A30002306F2240292708083A031DA7
:1002480027297A2140292708093A031D3629290B2D
:100258002F29A90131290130A9002908A300043058
:100268006F22402980302702031C40291F302705B0
:10027800AB00A30003306F222E08B00040302E07D9
:10028800B1002E082E07B20040302E072E07B3000B
:100298008030B400C030B50080302E04B600403045
:1002A8002E078038B700080070308F000F1D5A29BC
:1002B8009101073083129900850183168501831205
:1002C80087012030831687007A21B901B8013330BD
:1002D800930004309600903097008C1283168C1689
:1002E8000B17D13081008B168B17080083128512EB
:1002F80005123230A300A4014F22033087000514F1
:1003080005100530A300A4014F220330870005140F
:1003180005100130A300A4014F2203308700051403
:1003280005100530A300A4014F22023087000514F0
:1003380005100C3034220130342200306722AC0022
:1003480002302C02031CAA290130AC002C08A3009F
:1003580000306F222C08031D051503190511033001
:100368006722AB001F302B02031CBC291E30AB00D8
:100378002B08A30003306F2201306722AE005130F2
:100388002E02031CC9291030AE002E08A30001302C
:100398006F222E08B00040302E07B1002E082E071D
:1003A800B20040302E072E07B3008030B400C030B2
:1003B800B50080302E04B60040302E078038B700D4
:1003C80002306722AF0009302F02031CED290230EA
:1003D800AF002F08A30002306F2204306722A90063
:1003E80002302902031CFA290130A9002908A300B8
:1003F80004306F22290B0E2AA3014122C030342277
:100408000F30A3004122EE30A3000230A4004F2297
:1004180001303422A801080026142F3083168700E3
:10042800831205168512261C212A05142610871901
:100438002614051005140510172A20308316870086
:1004480083120800A500102205128516250E0F3903
:1004580087000514051025088700051405100800F5
:10046800A30010220512230E0F398700051405106A
:1004780023088700051405100800A4012408230791
:100488003320003A03194E2A240823073320262252
:10049800A40A422A0800230824040319662AA5018D
:1004A800043025020318612AA601453026020318E4
:1004B8005F2AA60A592AA50A542AA303230A03195C
:1004C800A4034F2A0800A30083169B009C131C1446
:1004D8001A0883120800A40025108B1B25148C13FE
:1004E80083169B008312230883169A009C131C15FD
:1004F8008B1355309D00AA309D009C1483128C1FCD
:10050800832A83161C118312251C8B1325188B171D
:020518000800D9
:02400E00C431BB
:00000001FF
